:100000000C9400040C9444040C945F040C94440479
:100010000C9444040C9444040C9444040C94440440
:100020000C9444040C948C190C942D110C944404DD
:100030000C9444040C9444040C9444040C94440420
:100040000C9444040C9444040C9444040C94440410
:100050000C9444041B062D063B064C0669068106DB
:10006000A00677089C08A108A608AB08B008B50848
:10007000BA08BF08C408C908D008D308D608D908E8
:10008000DC08DF08E208E508EA086A096A09A40949
:10009000A409F7099A0B9A0B9A0B130AF10A020B9F
:1000A000020BBB12BB12CE12CE12C412CE12CE1253
:1000B000CE12BB12BB12C912CE12CE12C9125E04EE
:1000C0005D045C0404015F00600061000B0015002A
:1000D000140013000F043B003A005F040F015C00A2
:1000E0005D005E00120018000A0108040F055B04A1
:1000F0005A045904110057001700560054004C00D0
:100100000600080010003D003C001B011B005900C8
:100110005A005B0009000A00060409042C0107517B
:100120004B004E0028002A006200630004000C000F
:1001300007001D002C00010001000100010001006A
:1001400001000100010001000100010001000100A7
:100150000100010001000100010001000100010097
:100160000100010001000100010001000100010087
:100170000100010001000100010001000100010077
:100400000100010001000100CA5CCB5CC35C01007B
:1004100001000100010001000100010001000100D4
:10042000C85CC95CC45C010001000100010001005E
:1004300001000100010001000100010001000100B4
:1004400001000100010001000100010001000100A4
:10045000C65CC75CC55C0100010001000100010031
:100460000100010001000100BF5CBE5CC05C010036
:100470000100010001000100010001000100000174
:100480000101010101010101020202020202020254
:100490000203030303030303030404040404040426
:1004A00005050505050606060606070707070708EA
:1004B000080808090909090A0A0A0B0B0B0C0C0C9D
:1004C0000D0D0D0E0E0E0F0F0F1010111111121237
:1004D00013131414151516161717181819191A1AB4
:1004E0001B1B1C1D1D1E1E1F202021222223242415
:1004F000252626272829292A2B2C2D2D2E2F303151
:100500003232333435363738393A3B3C3D3E3F4062
:100510004142434445464748494A4C4D4E4F50514D
:100520005354555658595A5B5D5E5F616264656607
:1005300068696B6C6D6F7072737577787A7B7D7E8E
:100540008082838587888A8C8E8F91939596989ADE
:100550009C9EA0A2A3A5A7A9ABADAFB1B3B5B7BAF6
:10056000BCBEC0C2C4C6C9CBCDCFD1D4D6D8DBDDCA
:10057000DFE2E4E7E9EBEEF0F3F5F8FAFDFFFFAABE
:100580007F55402223252628292A2C2D2F3032332F
:100590003536383A3B3D3E4042434547494A4C4E4A
:1005A0005051535557595A5C5E6062646668696B76
:1005B0006D6F71737577797B7D7F81838587898A7C
:1005C0008C8E90929496989A9C9E9FA1A3A5A7A882
:1005D000AAACAEAFB1B3B4B6B8B9BBBCBEBFC1C2B2
:1005E000C3C5C6C7C9CACBCCCDCED0D1D2D2D3D445
:1005F000D5D6D7D7D8D9D9DADADBDBDBDCDCDCDC63
:10060000DCDDDDDDDDDCDCDCDCDCDBDBDBDADAD930
:10061000D9D8D7D7D6D5D4D3D2D2D1D0CECDCCCBB2
:10062000CAC9C7C6C5C3C2C1BFBEBCBBB9B8B6B4D0
:10063000B3B1AFAEACAAA8A7A5A3A19F9E9C9A9860
:10064000969492908E8C8A89878583817F7D7B7931
:10065000777573716F6D6B6968666462605E5C5A12
:100660005957555351504E4C4A4947454342403ED5
:100670003D3B3A3836353332302F2D2C2A29282667
:1006800025232200000000000000000000000101FE
:100690000203040506080A0C0F1114181C20242953
:1006A0002E33393F464C535B626A7179818A929A44
:1006B000A2AAB2B9C1C8CFD5DCE1E7EBF0F4F7FAF2
:1006C000FCFDFEFFFEFDFCFAF7F4F0EBE7E1DCD504
:1006D000CFC8C1B9B2AAA29A928A8179716A625BC3
:1006E000534C463F39332E2924201C1814110F0C6B
:1006F0000A080605040302010100000000000000D2
:100700000000001E0F0500047F3F1F643214643296
:1007100014783C1E1E140A0505010980A1018503F9
:1007200019012AB700150126B7009501751081003F
:10073000C0050C0901A101850419012AA0021501B7
:1007400026A002950175108100C005010906A101CE
:10075000050719E029E715002501950875018102B3
:100760009501750881030507190029FF150026FF6B
:10077000009506750881000508190129059505757C
:10078000019102950175039103C00A034A004A00D2
:1007900035003000000016034B0050007200650069
:1007A0007000750062006C006900630000000403C3
:1007B000090409023B00020100A0FA09040000013B
:1007C0000301010009210101000122400007058108
:1007D00003080001090401000103000000092101D0
:1007E00001000122320007058303080001120110F5
:1007F0000100000008504B500000020102000100FF
:1008000011241FBECFE5D8E0DEBFCDBF04B603FE86
:1008100024C08091EF029091F002A091F102B0917A
:10082000F2028730904BA740B04BB9F41092EF0220
:100830001092F0021092F1021092F20214BE84B7EC
:10084000877F84BF0FB6F894A89581B5886181BD74
:1008500011BC0FBEE0E0F8E3099510E0A0E6B0E0BF
:10086000E2E2F5E402C005900D92AC3EB107D9F783
:1008700022E0ACEEB0E001C01D92AF3EB207E1F75E
:100880000E94D91A0C948F220C940000A82FB92F23
:1008900080E090E041E050EA609530E009C02D91A1
:1008A00082279795879510F084279527305EC8F3A7
:1008B0006F5FA8F30895EADF8D939D930895CF931A
:1008C000CFB7CF93C395839BE9F7839B0EC0839BE0
:1008D0000CC0839B0AC0839B08C0839B06C0C09149
:1008E000A402C395C093A402A6C0DF93C091CA021C
:1008F000DD27C353DD4F839B02C0DF91E6CF2F93EB
:100900000F931F9300B32FEF03FB20F94F933F93F7
:1009100010B34FEF012703FB21F93BE031C04E7FBD
:10092000012F10B3216028C0102F4D7F22600000DE
:1009300000B329C04B7F2460012F000010B32BC0EF
:1009400010B3477F28602AC04F7E00B320612CC0BF
:100950004F7D10B320622FC04F7B00B3206432C0A4
:10096000422700B349934FEF0000102713FB20F9F3
:1009700010B31C70C9F1297F91F2012703FB21F903
:1009800000B3237F89F2315058F1102713FB22F96D
:1009900010B3277E79F2012703FB23F92F7C81F224
:1009A00000B3102713FB24F92F7971F200C010B3A4
:1009B000012703FB25F92F7359F200C000B310275C
:1009C00013FB26F9223040F200C010B3012703FBCD
:1009D00027F9243028F64F77206810B30000F9CFAC
:1009E00010E81ABF00271CC03B503195C31BD040F4
:1009F00010E81ABF0881033C11F10B3401F120917A
:100A0000C8021981110F1213EDCF4A81441F093614
:100A100069F10D3211F0013E29F74F7009F0042FF2
:100A20000093A3023F914F911F910F912F91DF915E
:100A3000CAB7C7FD47CFCF91CFBFCF9118952091AF
:100A4000A302222379F31091CB02112309F044C0B1
:100A500034300AF443C03093CB022093C902109182
:100A6000CA023BE0311B3093CA0238C00091CB026E
:100A7000013094F50AE54F7049F430917D0034FD62
:100A80002FC000937D00C5EAD2E02EC0433059F05C
:100A9000443091F03091B00234FD22C00093B00296
:100AA000C1EBD2E021C03091E30234FD19C00093C4
:100AB000E302C4EED2E018C03091BC0234FD10C095
:100AC0000093BC02CDEBD2E00FC02795A8F45150A3
:100AD000A9F4220F0000F9CF4AE503C042ED01C09E
:100AE000432FC4E1D0E032E011B31C60939A11BBF4
:100AF00002B320E41CE05F93012756E002BB279578
:100B000020F4515021F4220FF9CF012756E00000C4
:100B10003B5A02BBD0F2279528F4515029F4220FFA
:100B20000000F9CF012756E0279502BB20F4515071
:100B300021F4220FF9CF012756E02991332302BB7C
:100B400021F6037F1091CC02110FC651D04002BB99
:100B500011F01093C80210E81ABF086011B3137F98
:100B6000402F437F5F9100C000C002BB11BB42BB5E
:100B700059CF8F929F92AF92BF92CF92DF92EF9216
:100B8000FF920F931F93CF93DF93CDB7DEB72A97D2
:100B90000FB6F894DEBF0FBECDBFFC010081D1803F
:100BA00083819481892B39F01FEFD11206C091E027
:100BB0000F3F19F403C091E001C090E090FDF9C52A
:100BC0007F0185E0DE01169601900D928A95E1F78E
:100BD000F70122818E819F81222349F00E945C12BD
:100BE000182F682F8E819F810E94FE1203C00E94E1
:100BF000D212182F2CE3129FF00111243CE0D39E57
:100C0000E00DF11D1124E00FF11DEE0FFF1FE25466
:100C1000FF4F05911491F7019281992309F4B1C016
:100C2000F801EC5BFC45E730F10508F0AAC0E65D91
:100C3000FF4F0C946D228091CE0187708066809367
:100C4000CE01887F91E009F490E08091CE0190FB85
:100C500080F98093CE018CE007C08091CE0187702F
:100C60008E7F8093CE0180E00E94ED198091CE01AD
:100C70000E949011CBC28091CE01982F96959695A7
:100C8000969509F469C0915E990F990F990F877035
:100C9000892B8093CE014BC02091CE01822F869567
:100CA00086958695482F50E04C30510554F48F5F5F
:100CB000982F990F990F990F822F8770892B809306
:100CC000CE018091CE0181608093CE010E9490116F
:100CD00043C08091CE0180FF09C08E7F8093CE01FA
:100CE0000E94901180E00E94ED1990C28160809373
:100CF000CE01813019F489E08093CE018091CE013C
:100D0000E5CF9091CE01892F8695869586958F5F48
:100D10008F7197708D3038F4880F880F880F892B6A
:100D20008093CE0102C09093CE018091CE01887F46
:100D300091E009F490E08091CE0190FB80F9C4CF5E
:100D40008091CE0181FF0EC08D7F8093CE010E94E5
:100D5000901189B78B7F89BF8091CE01869586954A
:100D60008695C1CF82608093CE010E94901110922F
:100D7000D1011092D0011092CF0189B7846089BF50
:100D800045C2043F2CE5120799F406E221EE40EE3D
:100D900064EF7CE509C0083DFCE51F0711F506E29C
:100DA00021EE41EE68ED7CE5C7010E944E1A2EC28D
:100DB000053F3CE5130708F040C1093D8CE51807E5
:100DC00031F407E225EE45EE69ED7CE5EDCF0A3D15
:100DD000ECE51E0701F708E221E045EE6AED7CE54F
:100DE000E3CF992309F45EC11092EE000230FCE5D6
:100DF0001F0708F441C106312CE5120738F09801AD
:100E00002B5F3C452930310508F036C10E94951111
:100E10009093E1018093E00100313CE5130709F470
:100E2000C3C008F041C008309CE5190709F49AC016
:100E3000F0F40430FCE51F0709F487C068F40230C1
:100E40003CE5130709F477C003301C4509F0E5C001
:100E50008091E001826076C006309CE5190709F4B4
:100E60006EC008F07BC08091E00188606BC00C30E0
:100E7000FCE51F0709F485C068F40A303CE5130758
:100E800009F474C008F079C00E94C1158091E00196
:100E9000806858C00E309CE5190709F476C008F048
:100EA0007FC08091E0018BC00C3FFCE51F0709F477
:100EB0004FC018F503313CE5130709F47DC078F401
:100EC00001319CE5190709F473C002311C4509F092
:100ED000A4C00E94C1158091E0018F7733C0053115
:100EE000FCE51F0709F472C008F486C00B3F1C45DF
:100EF00009F093C08091E1013EC001158DE518070E
:100F000009F45FC058F40E3FECE51E0709F444C035
:100F100008F43FC08091E10182602DC002302DE5D0
:100F2000120709F475C008F45DC003301D4509F0CF
:100F300074C060E06EC08091E001816003C0809168
:100F4000E00180618093E00168C08091E00111C000
:100F50008091E10182608093E1015FC08091E001B6
:100F60008062F0CF8091E0018064ECCF8091E0015D
:100F700088608460E7CF8160EECF8091E0018E7F52
:100F8000E1CF8091E0018D7FDDCF8091E001877F0F
:100F9000D9CF8091E10118C08091E1018D7FDBCF35
:100FA0008091E0018F7ECECF8091E0018F7DCACF0E
:100FB0008091E0018F7BC6CF8091E001877F8B7F9E
:100FC000C1CF8091E1018D7F8E7FC5CF8091E001FF
:100FD00082FB222720F991E0922790FB82F990FB77
:100FE00083F9B0CF8091E101982F909591708E7F19
:100FF000892B90FB81F9AFCF0E94C1158091E00150
:1010000087FB222720F991E0922790FB87F99ACF5E
:1010100061E08EE090E00E9478216091E001109103
:10102000E10184E090E00E947821612F81E290E06C
:101030000E9478210E94C115E9C0063F2CE51207E5
:1010400031F406E221EE42EE66EF7CE5ADCE063FDE
:101050003CE5130730F407E225EE44EE65EF7CE54E
:10106000A3CE073F8CE5180709F0BBCE07E225EEBB
:1010700046EE67EF7CE598CE80915F010631ECE5A6
:101080001E0749F58A7A91E009F490E09093EF0009
:10109000882311F065E301C069E284EF90E00E94CB
:1010A000761116C006311C4509F0CFC08091EF00C3
:1010B000882309F47CC385E3E4EFF0E02AEF30E015
:1010C0009281891301C0128231962E173F07C1F712
:1010D0000E9421129BC08272F801E35CFC45E4315E
:1010E000F10508F07CC0EF5CFF4F0C946D228091FD
:1010F000F90180FF1BC08E7F8093F9016091F90197
:101100007091FA018091FB019091FC010E94750C95
:101110001092FF019FEBE4EDF1E09150E040F040D0
:10112000E1F700C000000E942F0C70C08160809326
:10113000F90161E0869550C047E350E160E470E159
:101140002CC040E450E167E370E127C043E35EE078
:101150006CE37EE022C04CE35EE063E37EE01DC012
:101160004BE15EE067E27EE018C047E25EE06BE1E3
:101170007EE013C043E05EE06FE07EE00EC04FE033
:101180005EE063E07EE009C047E85CE068E97CE09F
:1011900004C048E95CE067E87CE00E94481A36C079
:1011A00061E081E019C065E082E011C068E086E09E
:1011B0000EC06EE089E00BC064E18FE008C067E11B
:1011C00085E105C061E088E107C062E289E10E9433
:1011D000361A1CC061E083E20E94F50F17C00115AA
:1011E0002CE5120731F00F3D1C4579F50E94B11135
:1011F0000DC00E94C1158FEB97E2E9E0815090404D
:10120000E040E1F700C000000E94141180915C01F1
:10121000877009F4CEC2F7018281882309F4C9C21C
:1012200082E02A960FB6F894DEBF0FBECDBFDF91E5
:10123000CF911F910F91FF90EF90DF90CF90BF90D3
:10124000AF909F908F900C945813F70100811181FB
:10125000992349F0C8010E945C12D82E682FC8015A
:101260000E94FE1204C0C8010E94D212D82EB801FA
:101270008D2D0E945C0E8C01982EF701B280A58006
:10128000A2942FE0A22280915C01877099F0BB208C
:1012900089F0812F807F803421F080E2800F8830B8
:1012A00048F082E00E94581380915C018770DD2431
:1012B000D3948111D12CC12EC2949FE0C9228C2DD0
:1012C00090E08C30910508F035C2FC01EB5BFF4FDC
:1012D0000C946D22812F807F1F70882311F012954E
:1012E000107FBB20B9F0112309F40FC280E2800FF8
:1012F000883010F0911006C080915F01182B109378
:101300005F0105C080915E01182B10935E010E9461
:101310002112FBC1802F0E94C71F112309F40AC2AA
:10132000005E1095083010F0911006C080915F01AA
:10133000182310935F0105C080915E01182310935C
:101340005E010E942112F6C1812F807F1F708032C2
:1013500011F01295107F992021F0F1E09F16E1F035
:101360002AC0BB2081F080916001AA2051F001E0E9
:10137000A01207C0182B181709F4DCC110936001E4
:10138000D9C1812B10C0AA2021F021E0A21609F4B6
:10139000D1C10E941B1227C0BB2041F035E03A1595
:1013A00008F4C8C1812F0E94BD1FC4C184E08A1502
:1013B00008F4C0C118C0BB2049F0AA2099F3F70176
:1013C000858180FFA2C18F708583ECCFAA2059F060
:1013D000093309F0ACC1FFEF1DEE22E0F1501040DF
:1013E0002040E1F7A2C1812F0E94B21FA3C1812F2B
:1013F00086958695837019F0813059F09BC1BB208A
:1014000019F0C801937002C080E090E00E946A1950
:1014100097C1BB2019F0C801937002C080E090E032
:101420000E9454198DC1812F837009F069C0B110D9
:1014300085C1902F929596959770990F990F802F4F
:101440008F70882E912CA12CB12C092E04C0880CF1
:10145000991CAA1CBB1C0A94D2F704FF12C04FE0CF
:1014600050E060E070E004C0440F551F661F771F16
:101470009A95D2F7DB01CA0180959095A095B09519
:1014800003C080E090E0DC0116951695412F437073
:10149000423019F1C8F4009161011091620120916C
:1014A000630130916401413059F088299929AA29B2
:1014B000BB29BC01CD0160237123822393230AC081
:1014C000802A912AA22AB32ABC01CD016829792950
:1014D0008A299B290E94921331C188299929AA2916
:1014E000BB2900916101109162012091630130914B
:1014F0006401BC01CD016027712782279327EACFC1
:10150000BB2019F0812F817001C08695882309F4D2
:1015100015C1902F929596959770990F990F802FDE
:101520008F70882E912CA12CB12C092E04C0880C10
:10153000991CAA1CBB1C0A94D2F704FF12C04FE0EE
:1015400050E060E070E004C0440F551F661F771F35
:101550009A95D2F7DB01CA0180959095A095B09538
:1015600003C080E090E0DC0116951695412F437092
:101570004230D9F068F50091DC011091DD01209135
:10158000DE013091DF01413059F088299929AA29DB
:10159000BB29BC01CD0160237123822393231EC08C
:1015A000802A912AA22AB32A13C088299929AA2914
:1015B000BB290091DC011091DD012091DE01309109
:1015C000DF01BC01CD01602771278227932706C068
:1015D000BC01CD01682979298A299B290E942913F8
:1015E000ADC01F70BB2039F0812F0E947113802F76
:1015F0000E94BD1FA3C0802F0E94B21F812F0E9496
:1016000033139CC0802F32EF931609F440C0391574
:1016100038F090EF991661F0E1EF9E1699F170C0E5
:10162000F3EF9F16D9F124EF921609F44EC068C06B
:10163000BB2019F134E03A1508F47CC01F7181E039
:1016400090E0A0E0B0E0AC01BD0104C0440F551F24
:10165000661F771F1A95D2F78091DC019091DD010A
:10166000A091DE01B091DF018A019B0108271927B3
:101670002A273B27C901B80125C025E02A1508F40F
:1016800059C0DCCFBB2029F0812F8F712CC0BB202B
:10169000D9F3812F8F710E9433134CC0BB2079F096
:1016A0001F7181E090E0A0E0B0E0BC01CD0104C07A
:1016B000660F771F881F991F1A95D2F703C060E045
:1016C00070E0CB010E94291335C0BB2079F01F7157
:1016D000812F0E94711338E0139FC0011124836091
:1016E00080935C01812F0E94711324C081E00E94CD
:1016F000581381E08A15F0F482E00E9458131AC052
:10170000BB2039F0AA2009F4BFCF802F0E94FF1F11
:1017100011C0AA2009F4BDCF893349F49FEFEDEE43
:10172000F2E09150E040F040E1F700C00000802F6F
:101730000E94C71F88EF8C0D843010F40E9480191E
:10174000DD20A9F080915C0180FD11C0F7011282BB
:101750008595859585950E947113C7010E94B905ED
:1017600080915C018595859585950E94331385E070
:10177000F701DE01119601900D928A95E1F78981BA
:101780009A810E94D2129A810CE3809FF001112469
:101790001CE0919FE00DF11D11248981E80FF11DDE
:1017A000EE0FFF1FE254FF4F8591949102C089E232
:1017B00083CC2A960FB6F894DEBF0FBECDBFDF9163
:1017C000CF911F910F91FF90EF90DF90CF90BF903E
:1017D000AF909F908F9008959091E00192FF0DC07F
:1017E000282F2871283019F4877F846006C0282F9D
:1017F0002471243011F48B7F886093FF0DC0282F53
:101800002871283119F4877E846106C0282F24713D
:10181000243111F48B7E88612091E10120FF0DC0FD
:10182000382F3871383019F4877F816006C0382F1F
:101830003171313011F48E7F886021FF0DC0282F67
:101840002871283119F4877E816106C0282F217103
:10185000213111F48E7E886194FD877E08958091F8
:10186000F90180FF0AC08091F300811111C00E942C
:10187000582081E08093F3000BC0E8E6F1E011828C
:1018800010821282339681E0EC38F807C1F7EBCF73
:1018900024E630E044E250E068E671E080EB0C942E
:1018A000E2209091F90190FF0CC0E8E6F1E081831D
:1018B00060834283339691E0EC38F907C1F70C94CA
:1018C0002F0C08958091F901282F269530E02115DD
:1018D000310519F48170826005C02B32310524F086
:1018E000817084658093F9010895CF92DF92EF9221
:1018F000FF926B017C010E94620CB701A60188E097
:1019000090E0FF90EF90DF90CF900C948921809130
:10191000FD01882319F081508093FD016091F90148
:101920007091FA018091FB019091FC010C94750C6F
:101930008091FD01833018F48F5F8093FD016091E9
:10194000F9017091FA018091FB019091FC010C94D6
:10195000750CE9EFF1E083E0808311828FEF8283E1
:101960008383148260817181828193810C94750CD0
:10197000AF92BF92CF92DF92EF92FF920F931F939D
:10198000CF93DF93E82EF62EE901E42FF0E061110A
:1019900006C0E258FB4FE4914E2F2E2F71C0062F48
:1019A00010E0E258FB4F4491F42FC42ED12C26E0D6
:1019B000829FC00111242FEF30E0B9010E9445221F
:1019C0005BEA5603C001579F900D11248E0D911DA7
:1019D0008E0D911D582F550F580FD901A01BB10B1B
:1019E000AC9DC001AD9D900DBC9D900D1124E92FC3
:1019F000F59ED0011124AB2FBB277901EA1AFB0A0F
:101A0000EC9CD001ED9CB00DFC9CB00D1124590153
:101A1000A51AB108A09E7001A19EF00CB09EF00C1A
:101A20001124EF2CFF242E193F092C9D80012D9DA0
:101A3000100D3C9D100D1124212F6230710591F085
:101A400048F461157105E1F061307105B9F4242F96
:101A50004B2F16C06430710569F040F06630710597
:101A600079F00CC0242F492FE12F0AC0492FEF2F06
:101A70002B2F06C0292FE42F412F02C0292FEB2F37
:101A800049832883EA83DF91CF911F910F91FF90C3
:101A9000EF90DF90CF90BF90AF900895CF93DF93FA
:101AA00000D01F92CDB7DEB79091F90190FF0AC028
:101AB0009E012F5F3F4F0E94B80C4B8169818A8144
:101AC0000E94510C0F900F900F90DF91CF910895CD
:101AD0005F926F927F928F929F92AF92BF92CF92BE
:101AE000DF92EF92FF920F931F93CF93DF9300D07B
:101AF0001F92CDB7DEB7182F762E042F622E90914D
:101B0000F90190FF6DC0E92FE695AE2FB0E0A25825
:101B1000BF4F8C918093FE019E7F923061F49E01B5
:101B20002F5F3F4F812F0E94B80C4B8169818A81C2
:101B30000E94510C43C0823019F40091FC013EC058
:101B4000863019F41091FA0139C08930D9F38931FE
:101B5000A9F5E9518E2F8170582EE695F0E0E258F4
:101B6000FA4FA590B49088E6C82E81E0D82EE12CDB
:101B7000F12CBB249CE0892E912CAE9CC001AF9C23
:101B8000900DBE9C900D1124B4010E944522812F1E
:101B9000511002C0860F01C0861B9601402F672D91
:101BA0000E94B80C8FEFE81AF80A83E0C80ED11C27
:101BB0008CE0E816F10409F70E942F0C1093FA014B
:101BC0007092FB010093FC01662051F06091F901D5
:101BD0007091FA018091FB019091FC010E94750CBB
:101BE0000F900F900F90DF91CF911F910F91FF9069
:101BF000EF90DF90CF90BF90AF909F908F907F90AD
:101C00006F905F900895E9EFF1E0438122E1421B7C
:101C100008F440E021E0628181810C94680DE9EFD5
:101C2000F1E0438122E1420F08F44FEF21E06281AD
:101C300081810C94680DE9EFF1E062812FE0621B75
:101C400008F460E021E0438181810C94680DE9EFA4
:101C5000F1E062812FE0620F08F46FEF21E0438131
:101C600081810C94680DE9EFF1E0818121E04381ED
:101C700062818C500C94680DE9EFF1E0818121E0E4
:101C800043816281845F0C94680DF894E82FE2959B
:101C9000EF70F0E031A9282F2F7081E090E001C0B3
:101CA000880F2A95EAF7982F9095932391AB92A9E4
:101CB000892B82AB78940895CF93DF932CE3829F96
:101CC000C0011124FC014CE0749FE00DF11D1124B2
:101CD000E60FF11DEE0FFF1FE254FF4FC591D491A7
:101CE000CE01C238D10569F1B0F4C133D10509F490
:101CF00075C048F4C932D10509F469C0CA32D105AA
:101D000009F473C085C0C533D10509F459C0C9337E
:101D1000D105B9F07DC0C33ED10571F138F4C03EA4
:101D2000D105B1F0C23ED10511F172C0C63ED10558
:101D3000B9F1C73ED105C9F1C43ED10509F068C06B
:101D400024C02091E00120FD5DC021FD5BC060C08A
:101D50002091E00120FD50C02091E10120FF42C10F
:101D60008091E00184FD3CC183EE90E03BC1209175
:101D7000E00122FF37C1F4CF8091E00182FD3FC036
:101D80008091E10180FD3EC0EBCF2091E10121FF78
:101D900029C18091E00184FD23C187EE90E022C13A
:101DA0002091E00123FF1EC1F4CF8091E00183FD6B
:101DB0002CC08091E10181FFECCF84EE90E012C154
:101DC0002091E00125FF0EC189E290E00BC1209136
:101DD000E00125FF07C185E390E004C12091E00107
:101DE00026FF00C18AE290E0FDC02091E00126FFBD
:101DF000F9C081E390E0F6C089E390E0F3C082EEA1
:101E000090E0F0C080EE90E0EDC086EE90E0EAC099
:101E1000C11552E5D50708F06BC0C11521E5D20701
:101E200028F09C2F8827816F906ADCC0C83ED105BE
:101E300070F5C03ED10508F0D5C0C83AD105B8F458
:101E4000C53AD10550F08C2F855AC82FD0E0C65422
:101E5000DF4F888190E09064C5C0C130D10509F49E
:101E6000C1C008F4BDC0249708F4BAC0BBC0CF3BC2
:101E7000D10508F0B5C08C2F885AC82FD0E0CC0F00
:101E8000DD1FC354DF4F888199819464ABC0C115B5
:101E900040E5D407F0F0CE01F4E096958795FA95E9
:101EA000E1F7282F23703C2F337081E090E002C0CF
:101EB000880F991F3A95E2F79C68922B2C2F2F7070
:101EC0002695269550E2259F90011124822B932B75
:101ED00089C0C11550E4D50720F0CE019F70906AEB
:101EE00081C09E013A9521153F4108F47BC078C01E
:101EF000C11556E5D50708F03FC0C11585E5D807DF
:101F000048F08C2F0E94EC0B8F7190E0982F88275F
:101F1000906268C0C11524E5D20728F09C2F88275D
:101F2000846F906A5FC09E01237033279C2F969523
:101F30009695C115D34580F441E050E002C0440FAE
:101F4000551F2A95E2F780E2989F90011124CA015B
:101F5000822B932B9C6846C041E050E002C0440FA6
:101F6000551F2A95E2F780E2989F90011124CA013B
:101F7000822B932B9A6836C0C1155AE5D507B0F469
:101F8000C11589E5D80718F18C2F8F700E94EC0BD2
:101F90009E0194E0369527959A95E1F72F7030E0F1
:101FA000322F22273069A901482B0FC0CE0190564D
:101FB00081159042A8F48D2F8F710E94EC0B9E0129
:101FC000332730628F71A901582BCA010BC0C1158C
:101FD00028E5D20728F09C2F8827806F906A02C0DE
:101FE00080E090E0DF91CF9108959091F90190FF0A
:101FF0003DC09170811102C0926006C08B3210F01A
:10200000946502C0880F982B9093F901662351F0D4
:102010006091F9017091FA018091FB019091FC01AE
:102020000E94750C6091F901669570E04BE050E0FC
:1020300084E690E00E948222892B19F01092FF0121
:1020400009C081E08093FF010E9462119093F40126
:102050008093F30181E08093F60120E04091FC0140
:102060006091FB018091FA010C94680D08958091B4
:10207000F9018695815009F48AE261E00C94F50F2C
:102080008091F90186958F5F8B3208F081E061E0E5
:102090000C94F50F9F92AF92BF92CF92DF92EF9286
:1020A000FF920F931F93CF93DF9302ED11E089EA24
:1020B000E82E80E0F82EC0E0D0E0912CCC24C39430
:1020C000D12CB701D7018C91F894E82FE295EF70ED
:1020D000F0E021A98F70A60102C0440F551F8A9518
:1020E000E2F7CA01922F982B91AB92A98095892390
:1020F00082AB789400C0EEEAF0E020E030E0A12C62
:10210000B12C4191842F82958F7090E0DC01D096A4
:102110008C9190E04F7002C0959587954A95E2F7B3
:1021200080FD08C0C601022E02C0880F991F0A94C4
:10213000E2F702C080E090E0A82AB92A2F5F3F4F63
:102140002C303105F1F6BFEFEB1AFB0AFB01808161
:102150000E94450EC430D10519F0F8E7FA95F1F761
:10216000D8018D919C911197A816B90621F0AD92D6
:10217000BC9281E001C080E0982A21960E5F1F4F3B
:10218000C530D10509F09DCF992049F081E08093B9
:10219000F2000E9462119093F1008093F000809110
:1021A000F200882391F18091F0009091F1000E945B
:1021B0005311069750F18091D2019091D3019093E1
:1021C000EA018093E9018091D4019091D501909327
:1021D000EC018093EB018091D6019091D70190930F
:1021E000EE018093ED018091D8019091D9019093F7
:1021F000F0018093EF018091DA019091DB019093DF
:10220000F2018093F1011092F200892DDF91CF91BC
:102210001F910F91FF90EF90DF90CF90BF90AF9004
:102220009F90089580E0089560E081E090E00E9432
:102230009B2187E090EBDC018093EF029093F0020A
:10224000A093F102B093F2029CE088E10FB6F894FB
:10225000A89581BD0FBE91BDFFCF78941F920F92BC
:102260000FB60F9211248F939F93AF93BF938091DA
:10227000E5019091E601A091E701B091E801019696
:10228000A11DB11D8093E5019093E601A093E701A4
:10229000B093E801BF91AF919F918F910F900FBEC6
:1022A0000F901F9018959C014FB7F8948091E5010D
:1022B0009091E601A091E701B091E8014FBF821B28
:1022C000930B08952FB7F8948091E5019091E60162
:1022D000A091E701B091E8012FBF089580910C0211
:1022E000882319F080E00C94ED1908959C01FC01FD
:1022F00032969FEF80E04191461789F09F3F19F495
:10230000411101C0982F8F5F8630A9F79F3F39F0A8
:10231000F901E90FF11D97FDFA956283089508957B
:10232000682F86E090E00C947821CF9384E090E0D1
:102330000E946421C82F81E290E00E9464212C2F2A
:1023400030E0A901582BCA01CF91089580E090E0B8
:102350000E94722121E08B3E9E4F09F020E0822FE7
:1023600008956BEE7EEF80E090E00E94952160E0A2
:1023700082E090E00E94782160E083E090E00E949B
:102380007821109261011092620110926301109203
:10239000640160E084E090E00E94782160E081E2E6
:1023A00090E00E94782160E085E090E00E94782132
:1023B00060E086E090E00E9478216FEF87E090E097
:1023C0000E94782140E050E0BA0188E090E00E944D
:1023D000892160E08DE090E00E94782140E050E0AB
:1023E000BA0188E190E00E94892160E087E190E0F5
:1023F0000E94782140E050E0BA018CE190E00E9418
:10240000892160E080E290E00E94782140E050E085
:10241000BA0188E190E00E94892140E050E0BA01D1
:102420008FE090E00E94892140E050E0BA0183E112
:1024300090E00C94892180916001811110926001DB
:10244000089590915F0180915E01892B20915D013B
:10245000982F922B9093F40080916001882389F04B
:10246000892B8093F400E6EFF0E097E080E0915054
:1024700029F021912223D9F38F5FF9CF81110E9496
:102480001B12E091E301F091E401309731F00280FA
:10249000F381E02D84EF90E00994089580E090E0CE
:1024A0000E946A1980E090E00E94541910925E0127
:1024B00010925D010C942112BF92CF92DF92EF92A5
:1024C000FF920F931F93CF93DF938C01C090DC0199
:1024D000D090DD01E090DE01F090DF01809161019C
:1024E00090916201A0916301B0916401C82AD92A38
:1024F000EA2AFB2ACFE1D0E0D701C6010C2E04C0A6
:10250000B695A795979587950A94D2F780FD04C054
:10251000219790F7B12C07C0BC2EB8018C2F0E94D8
:102520005C0E0197A9F38B2DDF91CF911F910F9135
:10253000FF90EF90DF90CF90BF900895CF93DF93FF
:10254000EC010E945C12BE010E945C0EDF91CF91F3
:1025500008950E949E12292F2F70E92FE295EF70A7
:102560004E2F50E0FA013297EE30F105B8F4EF5AF1
:10257000FF4F0C946D22803F99F018F4883E70F460
:102580000FC0843F59F40CC0883E50F0813F31F4B5
:1025900007C0822F869586958695089580E00895D8
:1025A00081E008952CE0929F800D1124682F66959C
:1025B00066956695982F977085E0689FB001112405
:1025C00040E050E080E0FB01E40FF51FEC5CFE4FC3
:1025D000208130E0092E02C0369527950A94E2F753
:1025E00021703327042E01C0220F0A94EAF7822BB0
:1025F0004F5F5F4F4530510531F708952CE0929FB2
:10260000800D1124E82FE695E695E695877051E058
:1026100001C0550F8A95EAF785E0E89FF001112483
:10262000EC5CFE4F20E030E070E04081CB01022EF8
:1026300002C0969587950A94E2F781708195842768
:102640008523842781932F5F3F4F2530310569F71C
:1026500008956093DC017093DD018093DE01909317
:10266000DF010C944E120F931F9341E050E060E0A5
:1026700070E004C0440F551F661F771F8A95D2F77C
:1026800040955095609570958091DC019091DD01A9
:10269000A091DE01B091DF018A019B01082319237B
:1026A0002A233B23C901B8011F910F910C942913D0
:1026B00020915C018095822380935C01982F977014
:1026C00079F430E0482F082E000C550B24173507FD
:1026D00039F08595859585950E94331310925C019C
:1026E00008950F931F9341E050E060E070E004C054
:1026F000440F551F661F771F8A95D2F78091DC0122
:102700009091DD01A091DE01B091DF018A019B0172
:10271000082B192B2A2B3B2BC901B8011F910F91B4
:102720000C9429136093610170936201809363019B
:10273000909364010C944E128091330190910201A8
:10274000891719F08F5F8770FBCF08950F931F9340
:10275000CF93DF938091010182958F7009F05DC066
:102760008091FE00882309F458C0809133011091B4
:1027700002016091FC007091FD00C091FF00D091BA
:10278000000191E06F3F09F090E0292F06E08117EA
:1027900009F443C0209721F07F3F21F030E003C0CF
:1027A00031E001C0322F90E030FD34C0089FF001CD
:1027B000099FF00D1124DF01AD5FBE4F11963C91D2
:1027C0001197371327C03C91361324C012963C91C1
:1027D000129731111FC013964D915C9114974C1BA9
:1027E0005D0B483C5105B0F4809101018F70806110
:1027F00080930101E85FFE4F80818F70806180834C
:102800008CEF90E00E94B905DF91CF911F910F915D
:102810000C949C1301968770BACFDF91CF911F91D2
:102820000F9108959F92AF92BF92CF92DF92EF9255
:10283000FF920F931F93CF93DF93CDB7DEB76197CE
:102840000FB6F894DEBF0FBECDBF8C0185E0F80156
:10285000DE011D9601900D928A95E1F7F8019081B5
:102860008181E2803091FC006091FD004091FF0089
:10287000509100014115510531F06F3F31F421E0D5
:102880003F3F19F403C021E001C020E0F22FF170B6
:102890009F2E20FD23C1F801C380D4802CEFA22EEF
:1028A00020E0B22EF090FE00F601E41BF50BFF20B5
:1028B00009F4CEC020910101E83CF10508F099C06F
:1028C000422F407F09F051C0681311C039130FC067
:1028D000FE2CE1100CC02F70206120930101C50176
:1028E0000E94B90580910101F801858337C1CD2887
:1028F00031F08F3F31F421E09F3F19F403C021E014
:1029000001C020E020FD03C021E02E2502C020E010
:1029100030E0F22FF170FF2E20FF1DC02091330117
:102920004091020156E0241709F4F6C030E0529FAE
:10293000F001539FF00D1124ED5FFE4F618186136E
:1029400006C06081961303C06281E61204C02F5F47
:102950003F4F2770E8CFFE2CEE2009F4FFC0809196
:10296000010181608093010150C0681307C03913D1
:1029700005C0E11003C0F80125838DC09D878E87B7
:102980008D859E850E94A912882369F1EE2059F158
:1029900020910101822F82958F7090E0029774F050
:1029A0008091FC009091FD0098878F831986DB86CB
:1029B000CA862C87CE0107960E94B90586E0F801E9
:1029C000ACEFB0E001900D928A95E1F70E94A6135A
:1029D0000DC06817E1F09D878E878D859E850E94CA
:1029E000A91281111EC0C8010E94B905FF24F394E9
:1029F000B5C0422F407F69F78CEF90E00E94B90587
:102A000086E0F50111928A95E9F7F12CA7C03913F8
:102A1000E2CFE110E0CFF8012583C8010E94B9059B
:102A200057C0EE2001F320910101822F82958F7013
:102A300090E002971CF28091FC009091FD009A8337
:102A400089831B82DD82CC822E83CE010196B4CF96
:102A5000E83CF105E8F5FE2CEE2029F2681327C0CA
:102A6000391325C02091010120FD18C0822F8295C5
:102A70008F70482F50E04115510581F0F8012583F2
:102A80004F30510541F08F5F982F9295907F822FA4
:102A90008F70892B8583C8010E94B90586E0F801F3
:102AA000ACEFB0E001900D928A95E1F757C09D8799
:102AB0008E878D859E850E94A91281117FCF80917E
:102AC0000101816080930101C8010E94B90546C0DF
:102AD00086E0F50111928A95E9F740C0EE2009F4ED
:102AE00082CF9D878E878D859E850E94A912F82EA4
:102AF000882309F478CF86E0F801ACEFB0E00190CC
:102B00000D928A95E1F78091FC009091FD000E9462
:102B10009E120E94A61322C09D878E878D859E855A
:102B20000E949E12292F22952F70223028F49F7028
:102B300039F0811105C00BC0243028F49F7049F48E
:102B4000805E883020F0C8010E94B9059F2CF92CC6
:102B500005C0F8019581907F99F7F9CF8F2D619687
:102B60000FB6F894DEBF0FBECDBFDF91CF911F919E
:102B70000F91FF90EF90DF90CF90BF90AF909F901C
:102B8000089510925F0186E0E6EFF0E0DF011D920C
:102B90008A95E9F70C944E12CF92DF92EF92FF9252
:102BA0008C3724E1920728F469E070E00E94452206
:102BB00029C0A0E0B0E08A50974DAF4FBF4F6627C5
:102BC000782F892F9A2F25EF38E241E050E00E94BC
:102BD000EA2169017A01CA01B9010E941B229B0105
:102BE000AC01C701B6010E941B22BB27A92F982F59
:102BF000872F009721E0A207B10511F0BC0102C0A8
:102C00006FEF7FEFCB01FF90EF90DF90CF900895B3
:102C100008959F92AF92BF92CF92DF92EF92FF9270
:102C20000F931F93CF93DF93FC01A280948081E0E8
:102C30008483E3E8F5E0B490E2E0F6E0E491CCE8E8
:102C4000D1E0F8E6EF2EF1E0FF2ECC24CA94D12C8F
:102C5000EB190E2F10E022E02A1530F08091FA01D6
:102C600088838091FB018983911003C01B821A82A3
:102C700055C08B818823F9F081508B832FEF829F81
:102C8000C00111246C8170E00E944522FB01FF27E6
:102C9000ED57FA4F8491E82FEB192FEFE29FC00117
:102CA0001124B8010E9445228091FC01689FB00167
:102CB00011247A8333C00E9454212091FC0126956F
:102CC000215830E0A901440F551F322F2227240F2D
:102CD000351F232F33278217930704F582E08A15C7
:102CE00088F40E945421B6010E94592288830E94D0
:102CF00054212091FB012695622F70E00E945922F9
:102D0000280F29831A828091FC01843120F0893CAC
:102D100018F088EC01C084E18C838B8397014A8191
:102D2000698188810E94B80C259623E0E20EF11C8F
:102D300081E0C83CD80709F08ECFDF91CF911F9179
:102D40000F91FF90EF90DF90CF90BF90AF909F904A
:102D50000C942F0CEF92FF920F931F93CF93DF935E
:102D60008C01C8E6D1E0E12CF12CF8018481F6E079
:102D7000EF16F1041CF4882339F002C0811104C05D
:102D80009E014091FC0102C09E0140E06091FB0168
:102D90008091FA010E94B80C8FEFE81AF80A239686
:102DA0009CE0E916F10409F70E942F0CF8018481D8
:102DB00090E00196817099278483DF91CF911F91D4
:102DC0000F91FF90EF9008958F929F92AF92BF92D4
:102DD000CF92DF92EF92FF920F931F93CF93DF93E7
:102DE000EC014C81042F10E09801D8010E940C22C4
:102DF0009B01AC010E94D7216B017C01E0E2F0E075
:102E0000E01BF10BA5E5B0E09B01AC010E94D721CE
:102E10004B015C019F01DF010E9473229B01AC0109
:102E20000E94E2219B01AC012C0D3D1D4E1D5F1D3A
:102E3000C501B4010E94EA21822FF22E99E2921775
:102E400028F093E0299F900111240DC025E530E082
:102E5000281B3109C901880F991F280F391F37FF17
:102E600002C02F5F3F4F35952795122F109598E69A
:102E7000C92E91E0D92E00E085E5E82EEF1801FD7E
:102E800002C08E2D01C08F2D9601412F6091FB0154
:102E90000E94B80C0F5F83E0C80ED11C0C3079F78C
:102EA0000E942F0C8C81811102C091E003C08032FE
:102EB00019F49FEF9093710090917100890F8C83AA
:102EC000DF91CF911F910F91FF90EF90DF90CF9006
:102ED000BF90AF909F908F9008950F931F93CF93C3
:102EE000DF93C8E6D1E0FE01118210821282339690
:102EF00081E0EC38F807C1F700E010E0809166014E
:102F0000082E000C990B0817190794F08091700097
:102F1000082E000C990B8017910754F09E014091E8
:102F2000FC016091FB018091FA010E94B80C03C082
:102F3000198218821A820F5F1F4F23960C301105D9
:102F4000E9F60E942F0C80916F0090916601980F16
:102F50009093660120917000280F20937000121644
:102F600014F49B301CF0819580936F00DF91CF911A
:102F70001F910F910895BF92CF92DF92EF92FF922F
:102F80000F931F93CF93DF93FC01828180FF03C0D7
:102F9000DD24DA9402C0DD24D39408E611E0C0E019
:102FA000D0E02CE0B22EF80111821082128294E05F
:102FB000E92EF12CC12C809165018C0D8D302CF007
:102FC0006B2D0E943722892F02C087FD845F082E57
:102FD000000C990BC817D90791F48091FC018E9DC4
:102FE000A0018F9D500D11245595479555954795F6
:102FF00098016091FB018091FA010E94B80CCD0C00
:10300000F1E0EF1AF108B9F621960D5F1F4FCC30B1
:10301000D10549F60E942F0C8091650191E0D912EB
:1030200006C0811102C08BE007C0815005C090E04E
:103030000196BE010E94592280936501DF91CF91D4
:103040001F910F91FF90EF90DF90CF90BF90089568
:10305000EF92FF921F93CF93DF93EC0188E6E82E67
:1030600081E0F82E10E08C8197014091FC01609185
:10307000FB01810F0E94B80C1B5E83E0E80EF11C7F
:103080001C3F89F70E942F0C9A818C8190FF02C00F
:103090008F5F01C081508C83DF91CF911F91FF9092
:1030A000EF9008950F931F93CF93DF9300D01F925B
:1030B000CDB7DEB78C018091670181110AC09E01F6
:1030C0002F5F3F4F4FEF6FEF0E94B80C8A818093C4
:1030D0006701F8018481813051F028F0823061F479
:1030E000409167010AC08091670140E007C060918C
:1030F000670140E080E003C040E080E060E00E94C3
:10310000510CF801848190E0019663E070E00E9428
:10311000592284830F900F900F90DF91CF911F91D0
:103120000F910895CF93DF93EC01E9EFF1E0438134
:1031300062818C810E944E0D8C818F5F8C83DF9128
:10314000CF910895CF93DF93EC01EC81F0E0ED5740
:10315000FA4F4491E9EFF1E0628181810E944E0DC6
:103160008C818F5F8C83DF91CF9108951F93CF93D4
:10317000DF93CDB7DEB767970FB6F894DEBF0FBE0B
:10318000CDBF342F4B8B252F5C8B6D8B7E8B8F8B24
:103190004E895F89611110925E0186E0FE013D96C5
:1031A000DF01982F1D929A95E9F73D872E876F874B
:1031B000598B488BDE01179601900D928A95E1F7A5
:1031C000CE0107960E94121481113EC086E0FE01D6
:1031D0003796DE01119601900D928A95E1F7FF81F5
:1031E000E8856A857B856115710531F0EF3F31F423
:1031F00081E0FF3F19F403C081E001C080E080FD61
:1032000023C02091020130E0C901019687709927FF
:103210004091330150E08417950779F1F983EA83EF
:103220007D836C8396E0929FD001939FB00D112413
:10323000AD5FBE4FFE01319601900D929A95E1F778
:10324000809302010E949C1316E0809133019091BB
:1032500002018917F9F0189FC00111248D5F9E4F5C
:103260000E9412148823B1F08091330190E00196FE
:103270008770992780933301E8CF0E94C11510927F
:10328000020110923301ECEFF0E086E0DF011D92C5
:103290008A95E9F767960FB6F894DEBF0FBECDBFEB
:1032A000DF91CF911F9108952091CC013091CD01F4
:1032B0002817390771F09093CD018093CC01E091EC
:1032C000E301F091E401309721F00084F185E02DD5
:1032D000099408952091CA013091CB01281739072C
:1032E00071F09093CB018093CA01E091E301F091DA
:1032F000E401309721F00680F781E02D09940895CC
:10330000E091E301F091E401309721F00190F08128
:10331000E02D099480E008951F920F920FB60F924E
:1033200011242F933F934F935F936F937F938F93CA
:103330009F93AF93BF93EF93FF938091D0019091B0
:10334000D101019668EB75E00E9445229093D1016E
:103350008093D0016BE070E00E9445226F778091EE
:10336000CF01823019F4603441F404C0813029F473
:103370006F3719F489B78B7F89BFE62FF0E0ED57DF
:10338000F94FE49121E031E0E29FC001E39F900D0D
:1033900011246CE070E00E9445228091CE01869558
:1033A00086958695282F269FC001279F900D112472
:1033B0000E94CC1599BD88BDFF91EF91BF91AF914F
:1033C0009F918F917F916F915F914F913F912F913D
:1033D0000F900FBE0F901F9018958D3038F481110B
:1033E00006C09FB59F7D9FBD949804C08CE09FB59B
:1033F00090629FBD282F30E0AFEFBFEF0E940C22FC
:103400002CE030E040E050E00E94EA21B42FA32FEE
:10341000922F8827892F9A2FAB2FBB270E94CC157C
:1034200099BD88BD08950E94A611811102C00E9415
:10343000B11186E090E00E9464218093CE01282F94
:1034400026952695269530E02D30310524F087709D
:1034500080668093CE018091CE0180FF04C0869566
:103460008695869501C080E00C94ED199091F90144
:1034700090FF04C09695981740F003C0811105C0D5
:1034800090E0961710F40C94401061E00C94F50F46
:10349000882311F0FA0101C0FB010994EF92FF9219
:1034A0000F93CF93DF93C42FD22FFC018281882307
:1034B000D1F04093EE000E9462119093C901809375
:1034C000C80180E28C0F883008F06DC0C77081E0C1
:1034D00001C0880FCA95EAF7DF91CF910F91FF9055
:1034E000EF900C94BD1F8091EE0048134BC080916B
:1034F000C8019091C9010E945311883C910508F0C0
:1035000041C0CD17C9F080E28C0F883040F4C770FD
:1035100081E001C0880FCA95EAF70E94B21F80E2DD
:103520008D0F883048F481E09D2F977001C0880F7F
:103530009A95EAF70E94BD1F093319F0E12CF12C8E
:1035400003C080E5E82EF12C802F0E94FF1FE114BC
:10355000F10451F087EB9BE00197F1F700C0000008
:1035600091E0E91AF108F3CF802F0E94C71F80E293
:103570008D0F8830C0F4D77081E001C0880FDA95D4
:10358000EAF70AC080E28C0F883068F4C77081E0E7
:1035900001C0880FCA95EAF7DF91CF910F91FF9094
:1035A000EF900C94B21FDF91CF910F91FF90EF90AD
:1035B0000895CF93DF93CDB7DEB72A970FB6F8946F
:1035C000DEBF0FBECDBF0E9462117C0184B7806850
:1035D00084BF84B7806884BF82E191E19093ED005D
:1035E0008093EC0085B7886085BF8BB780688BBF00
:1035F0008BE48093B1028093E4028093BD028AE55C
:103600008093B0028093E3028093BC028B9A80E0A7
:10361000815041F0A895E7EBFBE03197F1F700C04E
:103620000000F6CF8B9878948BE083BF8BEB8CBF38
:1036300082E089BF80E60E94450E81E60E94450E29
:1036400082E60E94450E83E60E94450E84E60E94B3
:10365000450E0EEA10E0F80181918F010E94450E9F
:10366000F0E00A3B1F07B9F7E2EDF1E08CED91E0E5
:10367000A9EEB1E0119211921D921D928E179F0733
:10368000C9F70E944A102FE339E141E02150304050
:103690004040E1F700C000000E944A108091E9011B
:1036A00080FF08C06FEF7FEF80E090E00E949521DF
:1036B0000E9414110E94A611811102C00E94B11132
:1036C0008C9A949882E28FBD89E18EBD8FEF9FEF37
:1036D00097BD86BD0E94131A8091CE0181FF09C05B
:1036E0001092D1011092D0011092CF0189B784605D
:1036F00089BF0E94A611811102C00E94B11182E00F
:1037000090E00E946421809301020E9495119093A1
:10371000E1018093E00183E090E00E946421682F42
:1037200070E080E090E00E9492130E94131A809152
:10373000E201811133C00E94A611811104C00E94D0
:10374000B1110E94A90C88E090E00E946C21609366
:10375000F9017093FA018093FB019093FC016E7F55
:1037600071F40E94A90C88E090E00E946C216093A3
:10377000F9017093FA018093FB019093FC010E9480
:10378000620C1092FF018091F90180FF04C060E09B
:1037900086950E94F50F81E08093E20182E790E038
:1037A0009093E4018093E3018FEB94EDE1E081508D
:1037B0009040E040E1F700C0000076E0C72E77E0DF
:1037C000D72E8091A402882391F01092A4020E9427
:1037D00062117C0180910C028823B9F010920C02D6
:1037E0000E94C1150E94131A0E9480190EC0809178
:1037F0000C0281110AC0C7010E945311069728F0DC
:1038000081E080930C020E946E1180910C0288234B
:10381000A1F081E080930C020E946E110E944A1078
:1038200083EF91E0E9EEF1E021913191232B09F052
:1038300028C18E179F07C1F7C4CF0E94191E80911F
:103840009B02882309F41AC18091B00284FF16C13B
:103850000E944A10882359F08FB7F8944091E501EF
:103860005091E6016091E7017091E8018FBFE2E0BD
:10387000F2E0A9EEB1E000E010E0902F4D915D91F3
:1038800021913191242735272115310579F180E0E7
:10389000AA24A394B12CB9016A217B21672B09F1D9
:1038A00089839A834A215B2181E0452B09F480E0DA
:1038B0008B830E9462118160782F9D838C83498164
:1038C0005A816B818D810E94B618000F111FF8017B
:1038D000EE5FFD4F80819181A826B926B182A0823A
:1038E0001AC08F5FAA0CBB1C8C30A9F60F5F1F4F4C
:1038F0000530110511F68FEF8E838F8318860E9495
:1039000062118160782F9A8789874E815F816885EF
:103910008A850E94B6188091FF01882309F4A4C00B
:103920008091FE01E091F901E695E81BE093F50135
:10393000823059F4F0E0EC5EF84FE4910E2F10E085
:10394000F2EAAF2EF8E1BF2E6AC0863059F4F0E0FB
:10395000EF5EF84FE4910E2F10E0E2E9AE2EE8E1C1
:10396000BE2E5DC0893061F4E695F0E0E25FF84F6D
:10397000E4910E2F10E078E2A72E78E1B72E4FC029
:103980008F3061F4E695F0E0E55FF84FE4910E2F9B
:1039900010E06BEBA62E67E1B62E41C0853159F4DD
:1039A000F0E0E85FF84FE4910E2F10E05DE6A52E01
:1039B00057E1B52E34C08831F1F0833241F4F6017D
:1039C0000591149142E5A42E48E1B42E28C084321A
:1039D000C9F08532F1F48E2F63E00E942B22E92F8B
:1039E000F0E0ED5FF84FE4910E2F10E039E0A32EE8
:1039F00036E1B32E14C008E210E024EEA22E26E138
:103A0000B22E0DC004EF11E09AEAA92E96E1B92E6C
:103A100006C000ED17E088E0A82E86E1B82E809160
:103A2000F601882361F01092F6010E9462119093D2
:103A3000F4018093F3011092F8011092F7010E94B3
:103A40006211E091F301F091F4018E1B9F0B8F3F07
:103A50009F4750F40E0F1F1F1093F4010093F301C2
:103A600083EF91E0F50109950E9480199091000281
:103A7000891721F00E948019809300020E94571F2D
:103A8000A0CEF89421B3939A822F8C6081BB92B31D
:103A90008CE0982792BBFFE53AEE40E0F1503040D1
:103AA0004040E1F700C0000092B3892782BB21BBF0
:103AB0009398789486CEFC0193819330D9F068F482
:103AC000913081F0923009F059C082EB97E09093E9
:103AD000A2028093A1028BE30895913249F19232C0
:103AE000B9F14CC08DEE97E09093A2028093A102B1
:103AF00082E108958281813099F050F08230F1F5B1
:103B00008AE897E09093A2028093A1028AE0089548
:103B10008EEA97E09093A2028093A10284E0089538
:103B200086E997E09093A2028093A10286E108952E
:103B30008281882329F0813009F58DED97E002C05C
:103B400084EC97E09093A2028093A10289E008950B
:103B500084819581009751F0019781F488E197E085
:103B60009093A2028093A10282E308958AE497E0F1
:103B70009093A2028093A10280E4089580E00895CA
:103B8000089580919C0208951F93CF93DF93162F81
:103B9000EA01288124FF05C0398128E823272983E9
:103BA00002C02AE52883212FFC01CE010296DC0108
:103BB00031913D9321501216DCF3612F0E945B047A
:103BC0001C5F1883DF91CF911F910895CF93DF93EE
:103BD00000D01F92CDB7DEB790919102981307C025
:103BE00020918F023091900226173707A1F0809321
:103BF00091027093900260938F0289837B836A8322
:103C00008091E30284FF07C043EE52E063E0CE01FF
:103C100001960E94C41D0F900F900F90DF91CF91DD
:103C20000895BC0184E00C94E61DBC0183E00C9473
:103C3000E61DCF93DF938091CB02835087FDCBC0ED
:103C40009091CA02CCE0D0E0C91BD109C353DD4F2B
:103C50009091C902903108F4BCC09D3209F0A0C017
:103C6000883009F0B6C083EC8093A5028AE5809382
:103C70007D001092A00288818076D9F1803209F00F
:103C800084C08981813069F48C819D81892B09F000
:103C90007CC083E992E09093A2028093A10288E025
:103CA00075C0823041F482E992E09093A202809341
:103CB000A10281E06BC08A3021F48B818093920253
:103CC00064C0893009F061C08A819B81811592406E
:103CD00009F0DCC08C819D81892B09F0D7C081E07F
:103CE00080939F028E819F8190939E0280939D027C
:103CF000CDC09A811092AE028981811106C01092C6
:103D0000AF022EEA32E082E03BC0853019F4909396
:103D1000CC0233C08630B9F48B81813041F08230DF
:103D200031F0833021F0813211F0823221F4CE0162
:103D30000E945B1D01C080E090E49093A0028F3F41
:103D400009F4A4C023C0883089F0893019F4909315
:103D50009B0213C08A3069F08B3079F48BE4809336
:103D6000B1028093E4028093BD0207C02BE932E0E8
:103D700002C02EEA32E081E003C02EEA32E080E0A9
:103D80003093A2022093A10201C080E09F81911193
:103D900004C09E81981708F4892F80937C0019C075
:103DA0008091A00287FF15C080919D0290919E0294
:103DB000892B09F475C080919F02813009F070C091
:103DC000888180939C0210929E0210929D02109214
:103DD0007C001092CB0280917D0084FF4CC08091CA
:103DE0007C008F3F09F447C0C82F893008F0C8E035
:103DF0008C1B80937C009091A50288E88927809392
:103E0000A502CC2359F18091A1029091A2022091A8
:103E1000A00226FF12C0A5EAB2E02C2FAC01455A41
:103E20005240FA01EA0FFB1FE4911196EC931197AF
:103E3000215011962111F5CF08C0E6EAF2E0DC012D
:103E40002C2F3D9131932150E1F701962FEF2C0F4C
:103E5000820F911D9093A2028093A1026C2F86EA9B
:103E600092E00E945B04CC5FCC3019F08FEF80931E
:103E70007C00C0937D0084E190B39C70A9F48150D4
:103E8000D9F71092CC021092C8020EC0888187FF29
:103E900005C08E8190E89093A0027FCF8FEFFACF7C
:103EA0008EE180937D0095CFDF91CF910895CF93E0
:103EB000DF93CAE0D0E08091B00284FF1AC0809105
:103EC0008D0290918E029817F1F028E0829FC00138
:103ED000112440EB52E068E0835F9D4F0E94C41DB7
:103EE00080918D0290E001968F70992780938D02CA
:103EF0000AC00E94191E87EB9BE00197F1F700C0F2
:103F000000002197C1F6DF91CF910895CF93DF9301
:103F1000EC01A0918E02B0E0CD0101968F7099273F
:103F200020918D02281779F093E0AA0FBB1F9A9574
:103F3000E1F7A35FBD4F98E0FE0101900D929A95C5
:103F4000E1F780938E020E94191E0E94571F88E09D
:103F5000FE01A3E9B2E001900D928A95E1F7DF91AD
:103F6000CF910895882341F0809590915F01892336
:103F700080935F010C9421120895882339F0909169
:103F80005F01892B80935F010C942112089588238F
:103F9000A9F19CEF980F913A60F4E4EFF0E0928180
:103FA000891301C01282319640E0EA3FF407B9F765
:103FB00014C090E2980F983090F4877021E030E0C0
:103FC000A90102C0440F551F8A95E2F7CA018095E6
:103FD00090915F01892380935F010C9421129BE5EE
:103FE000980F933020F480E090E00C946A19885A7E
:103FF000873120F480E090E00C9454190895CF9319
:10400000882309F453C09CEF980F913AF8F4C82F15
:10401000E6EFF0E08CEF90E02191C21721F08E17CF
:104020009F07D1F70DC0E4EFF0E08281C81301C013
:104030001282319640E0EA3FF407B9F70E9421125C
:104040006C2F84EF90E00E94761113C090E2980FDD
:10405000983090F4877021E030E0A90102C0440F4D
:10406000551F8A95E2F7CA0190915F01892B8093D1
:104070005F01CF910C942112EBE5E80FE33040F49F
:10408000F0E0E654FF4F808190E0CF910C946A19E4
:10409000885A873158F4E82FF0E0EE0FFF1FE35401
:1040A000FF4F80819181CF910C945419CF91089545
:1040B00011B887E080B985B3836085BB86B784601B
:1040C00086BF86B7816086BF86B7806486BF089545
:1040D000EF92FF920F931F93CF93DF93182FEB0173
:1040E00016BE84EA86BF0E9462117C0106B607FCF8
:1040F0000EC0CF3F8FEFD807C9F30E9462118E190F
:104100009F098C179D0790F38EEF9FEF28C081B118
:10411000887F883039F081B1887F803119F08FEF46
:104120009FEF1DC013B984E886BF0E9462118C0105
:1041300006B607FC0CC0CF3F8FEFD807C9F30E942B
:104140006211801B910B8C179D0790F3DDCF81B11D
:10415000887F883111F0803411F780E090E0DF91A2
:10416000CF911F910F91FF90EF9008950F931F93A0
:10417000CF93DF93EB0183B984E886BF0E9462117D
:104180008C0106B607FC0EC0CF3F8FEFD807C9F3EE
:104190000E946211801B910B8C179D0790F38EEF8C
:1041A0009FEF0BC021B1287F81E090E0283211F40D
:1041B00080E090E0919581959109DF91CF911F91D9
:1041C0000F910895CF92DF92EF92FF920F931F937A
:1041D000CF93DF936B018A017901B9010E946820B6
:1041E000E6010C0D1D1DC017D10759F424E926BFA7
:1041F000DF91CF911F910F91FF90EF90DF90CF90C3
:10420000089597FDF3CFB70189910E94B620EBCFB7
:104210008F929F92AF92BF92CF92DF92EF92FF92D6
:10422000CF93DF93EC01688179818A819B8161154D
:1042300071058105910521F464E279ED8BE597E044
:104240002DE133EF41E050E00E94B82149015A01CD
:104250009B01AC01A7EAB1E40E94D7216B017C016C
:10426000ACEEB4EFA50194010E94E521DC01CB0185
:104270008C0D9D1DAE1DBF1DB7FF03C00197A10989
:10428000B04888839983AA83BB839F77DF91CF91BE
:10429000FF90EF90DF90CF90BF90AF909F908F9066
:1042A00008950E940821089580E690E00E94082168
:1042B0000895A0E0B0E08093600090936100A09327
:1042C0006200B09363000895E199FECF9FBB8EBB5F
:1042D000E09A99278DB30895A6E1B0E044E050E05C
:1042E0000C94AA21A8E1B0E042E050E00C94AA218D
:1042F000262FE199FECF9FBB8EBBE09A01970DB2AE
:10430000021631F02DBB0FB6F894E29AE19A0FBE77
:1043100008950396272F0E9479210E947821252F46
:104320000E947921242F0C9479210196272F0E9435
:1043300079210C947821262FE199FECF9FBB8EBB6B
:104340002DBB0FB6F894E29AE19A0FBE019608953C
:10435000DC01CB01FC01E199FECF06C0FFBBEEBB47
:10436000E09A31960DB20D9241505040B8F7089541
:10437000052E97FB1EF400940E94CF2157FD07D015
:104380000E94EA2107FC03D04EF40C94CF215095F3
:104390004095309521953F4F4F4F5F4F0895909531
:1043A0008095709561957F4F8F4F9F4F08950E9424
:1043B0000C22A59F900DB49F900DA49F800D911D80
:1043C00011240895B7FF0C94D7210E94D721821B96
:1043D000930B0895A1E21A2EAA1BBB1BFD010DC071
:1043E000AA1FBB1FEE1FFF1FA217B307E407F507A5
:1043F00020F0A21BB30BE40BF50B661F771F881F81
:10440000991F1A9469F760957095809590959B0116
:10441000AC01BD01CF010895A29FB001B39FC001BF
:10442000A39F700D811D1124911DB29F700D811DE0
:104430001124911D0895DB018F939F930E94D72132
:10444000BF91AF91A29F800D911DA39F900DB29F30
:10445000900D11240895991B79E004C0991F9617B7
:1044600008F0961B881F7A95C9F78095089587FBF9
:10447000082E062687FD819567FD61950E942B22F7
:104480000EF4919507FC81950895AA1BBB1B51E181
:1044900007C0AA1FBB1FA617B70710F0A61BB70BB4
:1044A000881F991F5A95A9F780959095BC01CD0159
:1044B000089597FB072E16F4009407D077FD09D0D6
:1044C0000E94452207FC05D03EF4909581959F4FB0
:1044D0000895709561957F4F0895EE0FFF1F059029
:1044E000F491E02D09940E940C22332312F48A1BCC
:1044F0009B0B0C947D220E940C22B7FF0895821B17
:10450000930B0895FC014150504030F00190061685
:10451000D1F73197CF010895882799270895F89406
:02452000FFCFCB
:104522000100000001191A1B1C1D1E1F202122015F
:104532000201C11D861FC01D151E111EFF5A00015A
:10454200020202020606060909090909090F0F0FEC
:104552000F0F0F15151518191919191919191919F4
:104562001923242525252525256061626364909100
:1045720092939495969737363534818283E200E997
:1045820000EA00B500B600B700CD008301CC008A76
:10459200019201940121022302240225022602270C
:0C45A200022A02B300B4006F0070000099
:00000001FF
